{"contracts/SimpleStorage.sol":{"SimpleStorage":{"abi":[{"inputs":[{"internalType":"string","name":"_name","type":"string"},{"internalType":"uint256","name":"_favoriteNumber","type":"uint256"}],"name":"addPerson","outputs":[],"stateMutability":"nonpayable","type":"function"},{"inputs":[],"name":"favoriteNumber","outputs":[{"internalType":"uint256","name":"","type":"uint256"}],"stateMutability":"view","type":"function"},{"inputs":[{"internalType":"uint256","name":"","type":"uint256"}],"name":"favoriteNumberToName","outputs":[{"internalType":"string","name":"","type":"string"}],"stateMutability":"view","type":"function"},{"inputs":[{"internalType":"string","name":"","type":"string"}],"name":"nameToFavoriteNumber","outputs":[{"internalType":"uint256","name":"","type":"uint256"}],"stateMutability":"view","type":"function"},{"inputs":[],"name":"retrieve","outputs":[{"internalType":"uint256","name":"","type":"uint256"}],"stateMutability":"view","type":"function"},{"inputs":[{"internalType":"uint256","name":"_favoriteNumber","type":"uint256"}],"name":"store","outputs":[],"stateMutability":"nonpayable","type":"function"},{"inputs":[{"internalType":"uint256","name":"","type":"uint256"}],"name":"val","outputs":[{"internalType":"uint256","name":"favoriteNumber","type":"uint256"},{"internalType":"string","name":"name","type":"string"}],"stateMutability":"view","type":"function"}],"evm":{"bytecode":{"linkReferences":{},"object":"608060405234801561001057600080fd5b50610b15806100206000396000f3fe608060405234801561001057600080fd5b506004361061007d5760003560e01c80636057361d1161005b5780636057361d146100ef5780636f760f411461010b5780638bab8dd514610127578063fe379145146101575761007d565b80632e64cec114610082578063399313bd146100a0578063471f7cdf146100d1575b600080fd5b61008a610187565b60405161009791906106de565b60405180910390f35b6100ba60048036038101906100b59190610739565b610215565b6040516100c89291906107ff565b60405180910390f35b6100d96102d1565b6040516100e691906106de565b60405180910390f35b61010960048036038101906101049190610739565b6102d7565b005b61012560048036038101906101209190610964565b610365565b005b610141600480360381019061013c91906109c0565b610551565b60405161014e91906106de565b60405180910390f35b610171600480360381019061016c9190610739565b61057f565b60405161017e9190610a09565b60405180910390f35b60006101b57f6517c0da0de8e6bdfecf16d1112785c25bfb0651aae4c92cfc5774b57ee55c2d60001b61061f565b6101e17f0f494696f0c6b0cd7f0a26b701bbc60d2e75e4a153a9cd00c423ec7227d86cdf60001b61061f565b61020d7f823647a2904fcb7e38e99e4c806bc974270c0e2fb1ad5ef6ae78aff0489cf0c160001b61061f565b600054905090565b6003818154811061022557600080fd5b906000526020600020906002020160009150905080600001549080600101805461024e90610a5a565b80601f016020809104026020016040519081016040528092919081815260200182805461027a90610a5a565b80156102c75780601f1061029c576101008083540402835291602001916102c7565b820191906000526020600020905b8154815290600101906020018083116102aa57829003601f168201915b5050505050905082565b60005481565b6103037f88c2a3172ac446d7d1e148d2716078849220252217188e7543ff4e4f46932b0e60001b61061f565b61032f7fccfb9c18dc68fb1989a23b1e3acb214e92d470a1be7e82e6467b5bd130d8c7d760001b61061f565b61035b7f03874dc407568fc4551d41c0c15e182b5e4ea735f3af114acd59b24785851d2160001b61061f565b8060008190555050565b6103917f4c9ce405b581f21caf86a43fb66dd9b6692e258048010f2737cc905ce9e1977360001b61061f565b6103bd7fab480e850518a0ec832a4d1fcebdbfdd15d9429f23fa48e973b280ea050923df60001b61061f565b6103e97f2c932770f9e1d53b444ce28d306988cfed03a2ba9a4ce3dd6515156e9552e98460001b61061f565b6003604051806040016040528083815260200184815250908060018154018082558091505060019003906000526020600020906002020160009091909190915060008201518160000155602082015181600101908051906020019061044f929190610622565b50505061047e7fcab00b3dc99730c332709a69c4097370d2c3d38a422a37fc3ec97e90039a911f60001b61061f565b6104aa7fcb344fed26f3b4ebeaf09b7b59a74a47fe5f9e3c14f8878101abe744263328b160001b61061f565b806001836040516104bb9190610ac8565b9081526020016040518091039020819055506104f97fa049b0e855f8e67b43d279082fb82b5ddb6e2aff71376f8f58853627f452f75160001b61061f565b6105257f9ee4d458fab23398c019c9383c1a211787616814dd2fdc81af7659a5199e2ab160001b61061f565b8160026000838152602001908152602001600020908051906020019061054c929190610622565b505050565b6001818051602081018201805184825260208301602085012081835280955050505050506000915090505481565b6002602052806000526040600020600091509050805461059e90610a5a565b80601f01602080910402602001604051908101604052809291908181526020018280546105ca90610a5a565b80156106175780601f106105ec57610100808354040283529160200191610617565b820191906000526020600020905b8154815290600101906020018083116105fa57829003601f168201915b505050505081565b50565b82805461062e90610a5a565b90600052602060002090601f0160209004810192826106505760008555610697565b82601f1061066957805160ff1916838001178555610697565b82800160010185558215610697579182015b8281111561069657825182559160200191906001019061067b565b5b5090506106a491906106a8565b5090565b5b808211156106c15760008160009055506001016106a9565b5090565b6000819050919050565b6106d8816106c5565b82525050565b60006020820190506106f360008301846106cf565b92915050565b6000604051905090565b600080fd5b600080fd5b610716816106c5565b811461072157600080fd5b50565b6000813590506107338161070d565b92915050565b60006020828403121561074f5761074e610703565b5b600061075d84828501610724565b91505092915050565b600081519050919050565b600082825260208201905092915050565b60005b838110156107a0578082015181840152602081019050610785565b838111156107af576000848401525b50505050565b6000601f19601f8301169050919050565b60006107d182610766565b6107db8185610771565b93506107eb818560208601610782565b6107f4816107b5565b840191505092915050565b600060408201905061081460008301856106cf565b818103602083015261082681846107c6565b90509392505050565b600080fd5b600080fd5b7f4e487b7100000000000000000000000000000000000000000000000000000000600052604160045260246000fd5b610871826107b5565b810181811067ffffffffffffffff821117156108905761088f610839565b5b80604052505050565b60006108a36106f9565b90506108af8282610868565b919050565b600067ffffffffffffffff8211156108cf576108ce610839565b5b6108d8826107b5565b9050602081019050919050565b82818337600083830152505050565b6000610907610902846108b4565b610899565b90508281526020810184848401111561092357610922610834565b5b61092e8482856108e5565b509392505050565b600082601f83011261094b5761094a61082f565b5b813561095b8482602086016108f4565b91505092915050565b6000806040838503121561097b5761097a610703565b5b600083013567ffffffffffffffff81111561099957610998610708565b5b6109a585828601610936565b92505060206109b685828601610724565b9150509250929050565b6000602082840312156109d6576109d5610703565b5b600082013567ffffffffffffffff8111156109f4576109f3610708565b5b610a0084828501610936565b91505092915050565b60006020820190508181036000830152610a2381846107c6565b905092915050565b7f4e487b7100000000000000000000000000000000000000000000000000000000600052602260045260246000fd5b60006002820490506001821680610a7257607f821691505b60208210811415610a8657610a85610a2b565b5b50919050565b600081905092915050565b6000610aa282610766565b610aac8185610a8c565b9350610abc818560208601610782565b80840191505092915050565b6000610ad48284610a97565b91508190509291505056fea2646970667358221220a8daf5717be05de47c91103212aca8e8a6ab6196da2fbc9aeb0c9f9d4e1e09de64736f6c63430008080033","opcodes":"PUSH1 0x80 PUSH1 0x40 MSTORE CALLVALUE DUP1 ISZERO PUSH2 0x10 JUMPI PUSH1 0x0 DUP1 REVERT JUMPDEST POP PUSH2 0xB15 DUP1 PUSH2 0x20 PUSH1 0x0 CODECOPY PUSH1 0x0 RETURN INVALID PUSH1 0x80 PUSH1 0x40 MSTORE CALLVALUE DUP1 ISZERO PUSH2 0x10 JUMPI PUSH1 0x0 DUP1 REVERT JUMPDEST POP PUSH1 0x4 CALLDATASIZE LT PUSH2 0x7D JUMPI PUSH1 0x0 CALLDATALOAD PUSH1 0xE0 SHR DUP1 PUSH4 0x6057361D GT PUSH2 0x5B JUMPI DUP1 PUSH4 0x6057361D EQ PUSH2 0xEF JUMPI DUP1 PUSH4 0x6F760F41 EQ PUSH2 0x10B JUMPI DUP1 PUSH4 0x8BAB8DD5 EQ PUSH2 0x127 JUMPI DUP1 PUSH4 0xFE379145 EQ PUSH2 0x157 JUMPI PUSH2 0x7D JUMP JUMPDEST DUP1 PUSH4 0x2E64CEC1 EQ PUSH2 0x82 JUMPI DUP1 PUSH4 0x399313BD EQ PUSH2 0xA0 JUMPI DUP1 PUSH4 0x471F7CDF EQ PUSH2 0xD1 JUMPI JUMPDEST PUSH1 0x0 DUP1 REVERT JUMPDEST PUSH2 0x8A PUSH2 0x187 JUMP JUMPDEST PUSH1 0x40 MLOAD PUSH2 0x97 SWAP2 SWAP1 PUSH2 0x6DE JUMP JUMPDEST PUSH1 0x40 MLOAD DUP1 SWAP2 SUB SWAP1 RETURN JUMPDEST PUSH2 0xBA PUSH1 0x4 DUP1 CALLDATASIZE SUB DUP2 ADD SWAP1 PUSH2 0xB5 SWAP2 SWAP1 PUSH2 0x739 JUMP JUMPDEST PUSH2 0x215 JUMP JUMPDEST PUSH1 0x40 MLOAD PUSH2 0xC8 SWAP3 SWAP2 SWAP1 PUSH2 0x7FF JUMP JUMPDEST PUSH1 0x40 MLOAD DUP1 SWAP2 SUB SWAP1 RETURN JUMPDEST PUSH2 0xD9 PUSH2 0x2D1 JUMP JUMPDEST PUSH1 0x40 MLOAD PUSH2 0xE6 SWAP2 SWAP1 PUSH2 0x6DE JUMP JUMPDEST PUSH1 0x40 MLOAD DUP1 SWAP2 SUB SWAP1 RETURN JUMPDEST PUSH2 0x109 PUSH1 0x4 DUP1 CALLDATASIZE SUB DUP2 ADD SWAP1 PUSH2 0x104 SWAP2 SWAP1 PUSH2 0x739 JUMP JUMPDEST PUSH2 0x2D7 JUMP JUMPDEST STOP JUMPDEST PUSH2 0x125 PUSH1 0x4 DUP1 CALLDATASIZE SUB DUP2 ADD SWAP1 PUSH2 0x120 SWAP2 SWAP1 PUSH2 0x964 JUMP JUMPDEST PUSH2 0x365 JUMP JUMPDEST STOP JUMPDEST PUSH2 0x141 PUSH1 0x4 DUP1 CALLDATASIZE SUB DUP2 ADD SWAP1 PUSH2 0x13C SWAP2 SWAP1 PUSH2 0x9C0 JUMP JUMPDEST PUSH2 0x551 JUMP JUMPDEST PUSH1 0x40 MLOAD PUSH2 0x14E SWAP2 SWAP1 PUSH2 0x6DE JUMP JUMPDEST PUSH1 0x40 MLOAD DUP1 SWAP2 SUB SWAP1 RETURN JUMPDEST PUSH2 0x171 PUSH1 0x4 DUP1 CALLDATASIZE SUB DUP2 ADD SWAP1 PUSH2 0x16C SWAP2 SWAP1 PUSH2 0x739 JUMP JUMPDEST PUSH2 0x57F JUMP JUMPDEST PUSH1 0x40 MLOAD PUSH2 0x17E SWAP2 SWAP1 PUSH2 0xA09 JUMP JUMPDEST PUSH1 0x40 MLOAD DUP1 SWAP2 SUB SWAP1 RETURN JUMPDEST PUSH1 0x0 PUSH2 0x1B5 PUSH32 0x6517C0DA0DE8E6BDFECF16D1112785C25BFB0651AAE4C92CFC5774B57EE55C2D PUSH1 0x0 SHL PUSH2 0x61F JUMP JUMPDEST PUSH2 0x1E1 PUSH32 0xF494696F0C6B0CD7F0A26B701BBC60D2E75E4A153A9CD00C423EC7227D86CDF PUSH1 0x0 SHL PUSH2 0x61F JUMP JUMPDEST PUSH2 0x20D PUSH32 0x823647A2904FCB7E38E99E4C806BC974270C0E2FB1AD5EF6AE78AFF0489CF0C1 PUSH1 0x0 SHL PUSH2 0x61F JUMP JUMPDEST PUSH1 0x0 SLOAD SWAP1 POP SWAP1 JUMP JUMPDEST PUSH1 0x3 DUP2 DUP2 SLOAD DUP2 LT PUSH2 0x225 JUMPI PUSH1 0x0 DUP1 REVERT JUMPDEST SWAP1 PUSH1 0x0 MSTORE PUSH1 0x20 PUSH1 0x0 KECCAK256 SWAP1 PUSH1 0x2 MUL ADD PUSH1 0x0 SWAP2 POP SWAP1 POP DUP1 PUSH1 0x0 ADD SLOAD SWAP1 DUP1 PUSH1 0x1 ADD DUP1 SLOAD PUSH2 0x24E SWAP1 PUSH2 0xA5A JUMP JUMPDEST DUP1 PUSH1 0x1F ADD PUSH1 0x20 DUP1 SWAP2 DIV MUL PUSH1 0x20 ADD PUSH1 0x40 MLOAD SWAP1 DUP2 ADD PUSH1 0x40 MSTORE DUP1 SWAP3 SWAP2 SWAP1 DUP2 DUP2 MSTORE PUSH1 0x20 ADD DUP3 DUP1 SLOAD PUSH2 0x27A SWAP1 PUSH2 0xA5A JUMP JUMPDEST DUP1 ISZERO PUSH2 0x2C7 JUMPI DUP1 PUSH1 0x1F LT PUSH2 0x29C JUMPI PUSH2 0x100 DUP1 DUP4 SLOAD DIV MUL DUP4 MSTORE SWAP2 PUSH1 0x20 ADD SWAP2 PUSH2 0x2C7 JUMP JUMPDEST DUP3 ADD SWAP2 SWAP1 PUSH1 0x0 MSTORE PUSH1 0x20 PUSH1 0x0 KECCAK256 SWAP1 JUMPDEST DUP2 SLOAD DUP2 MSTORE SWAP1 PUSH1 0x1 ADD SWAP1 PUSH1 0x20 ADD DUP1 DUP4 GT PUSH2 0x2AA JUMPI DUP3 SWAP1 SUB PUSH1 0x1F AND DUP3 ADD SWAP2 JUMPDEST POP POP POP POP POP SWAP1 POP DUP3 JUMP JUMPDEST PUSH1 0x0 SLOAD DUP2 JUMP JUMPDEST PUSH2 0x303 PUSH32 0x88C2A3172AC446D7D1E148D2716078849220252217188E7543FF4E4F46932B0E PUSH1 0x0 SHL PUSH2 0x61F JUMP JUMPDEST PUSH2 0x32F PUSH32 0xCCFB9C18DC68FB1989A23B1E3ACB214E92D470A1BE7E82E6467B5BD130D8C7D7 PUSH1 0x0 SHL PUSH2 0x61F JUMP JUMPDEST PUSH2 0x35B PUSH32 0x3874DC407568FC4551D41C0C15E182B5E4EA735F3AF114ACD59B24785851D21 PUSH1 0x0 SHL PUSH2 0x61F JUMP JUMPDEST DUP1 PUSH1 0x0 DUP2 SWAP1 SSTORE POP POP JUMP JUMPDEST PUSH2 0x391 PUSH32 0x4C9CE405B581F21CAF86A43FB66DD9B6692E258048010F2737CC905CE9E19773 PUSH1 0x0 SHL PUSH2 0x61F JUMP JUMPDEST PUSH2 0x3BD PUSH32 0xAB480E850518A0EC832A4D1FCEBDBFDD15D9429F23FA48E973B280EA050923DF PUSH1 0x0 SHL PUSH2 0x61F JUMP JUMPDEST PUSH2 0x3E9 PUSH32 0x2C932770F9E1D53B444CE28D306988CFED03A2BA9A4CE3DD6515156E9552E984 PUSH1 0x0 SHL PUSH2 0x61F JUMP JUMPDEST PUSH1 0x3 PUSH1 0x40 MLOAD DUP1 PUSH1 0x40 ADD PUSH1 0x40 MSTORE DUP1 DUP4 DUP2 MSTORE PUSH1 0x20 ADD DUP5 DUP2 MSTORE POP SWAP1 DUP1 PUSH1 0x1 DUP2 SLOAD ADD DUP1 DUP3 SSTORE DUP1 SWAP2 POP POP PUSH1 0x1 SWAP1 SUB SWAP1 PUSH1 0x0 MSTORE PUSH1 0x20 PUSH1 0x0 KECCAK256 SWAP1 PUSH1 0x2 MUL ADD PUSH1 0x0 SWAP1 SWAP2 SWAP1 SWAP2 SWAP1 SWAP2 POP PUSH1 0x0 DUP3 ADD MLOAD DUP2 PUSH1 0x0 ADD SSTORE PUSH1 0x20 DUP3 ADD MLOAD DUP2 PUSH1 0x1 ADD SWAP1 DUP1 MLOAD SWAP1 PUSH1 0x20 ADD SWAP1 PUSH2 0x44F SWAP3 SWAP2 SWAP1 PUSH2 0x622 JUMP JUMPDEST POP POP POP PUSH2 0x47E PUSH32 0xCAB00B3DC99730C332709A69C4097370D2C3D38A422A37FC3EC97E90039A911F PUSH1 0x0 SHL PUSH2 0x61F JUMP JUMPDEST PUSH2 0x4AA PUSH32 0xCB344FED26F3B4EBEAF09B7B59A74A47FE5F9E3C14F8878101ABE744263328B1 PUSH1 0x0 SHL PUSH2 0x61F JUMP JUMPDEST DUP1 PUSH1 0x1 DUP4 PUSH1 0x40 MLOAD PUSH2 0x4BB SWAP2 SWAP1 PUSH2 0xAC8 JUMP JUMPDEST SWAP1 DUP2 MSTORE PUSH1 0x20 ADD PUSH1 0x40 MLOAD DUP1 SWAP2 SUB SWAP1 KECCAK256 DUP2 SWAP1 SSTORE POP PUSH2 0x4F9 PUSH32 0xA049B0E855F8E67B43D279082FB82B5DDB6E2AFF71376F8F58853627F452F751 PUSH1 0x0 SHL PUSH2 0x61F JUMP JUMPDEST PUSH2 0x525 PUSH32 0x9EE4D458FAB23398C019C9383C1A211787616814DD2FDC81AF7659A5199E2AB1 PUSH1 0x0 SHL PUSH2 0x61F JUMP JUMPDEST DUP2 PUSH1 0x2 PUSH1 0x0 DUP4 DUP2 MSTORE PUSH1 0x20 ADD SWAP1 DUP2 MSTORE PUSH1 0x20 ADD PUSH1 0x0 KECCAK256 SWAP1 DUP1 MLOAD SWAP1 PUSH1 0x20 ADD SWAP1 PUSH2 0x54C SWAP3 SWAP2 SWAP1 PUSH2 0x622 JUMP JUMPDEST POP POP POP JUMP JUMPDEST PUSH1 0x1 DUP2 DUP1 MLOAD PUSH1 0x20 DUP2 ADD DUP3 ADD DUP1 MLOAD DUP5 DUP3 MSTORE PUSH1 0x20 DUP4 ADD PUSH1 0x20 DUP6 ADD KECCAK256 DUP2 DUP4 MSTORE DUP1 SWAP6 POP POP POP POP POP POP PUSH1 0x0 SWAP2 POP SWAP1 POP SLOAD DUP2 JUMP JUMPDEST PUSH1 0x2 PUSH1 0x20 MSTORE DUP1 PUSH1 0x0 MSTORE PUSH1 0x40 PUSH1 0x0 KECCAK256 PUSH1 0x0 SWAP2 POP SWAP1 POP DUP1 SLOAD PUSH2 0x59E SWAP1 PUSH2 0xA5A JUMP JUMPDEST DUP1 PUSH1 0x1F ADD PUSH1 0x20 DUP1 SWAP2 DIV MUL PUSH1 0x20 ADD PUSH1 0x40 MLOAD SWAP1 DUP2 ADD PUSH1 0x40 MSTORE DUP1 SWAP3 SWAP2 SWAP1 DUP2 DUP2 MSTORE PUSH1 0x20 ADD DUP3 DUP1 SLOAD PUSH2 0x5CA SWAP1 PUSH2 0xA5A JUMP JUMPDEST DUP1 ISZERO PUSH2 0x617 JUMPI DUP1 PUSH1 0x1F LT PUSH2 0x5EC JUMPI PUSH2 0x100 DUP1 DUP4 SLOAD DIV MUL DUP4 MSTORE SWAP2 PUSH1 0x20 ADD SWAP2 PUSH2 0x617 JUMP JUMPDEST DUP3 ADD SWAP2 SWAP1 PUSH1 0x0 MSTORE PUSH1 0x20 PUSH1 0x0 KECCAK256 SWAP1 JUMPDEST DUP2 SLOAD DUP2 MSTORE SWAP1 PUSH1 0x1 ADD SWAP1 PUSH1 0x20 ADD DUP1 DUP4 GT PUSH2 0x5FA JUMPI DUP3 SWAP1 SUB PUSH1 0x1F AND DUP3 ADD SWAP2 JUMPDEST POP POP POP POP POP DUP2 JUMP JUMPDEST POP JUMP JUMPDEST DUP3 DUP1 SLOAD PUSH2 0x62E SWAP1 PUSH2 0xA5A JUMP JUMPDEST SWAP1 PUSH1 0x0 MSTORE PUSH1 0x20 PUSH1 0x0 KECCAK256 SWAP1 PUSH1 0x1F ADD PUSH1 0x20 SWAP1 DIV DUP2 ADD SWAP3 DUP3 PUSH2 0x650 JUMPI PUSH1 0x0 DUP6 SSTORE PUSH2 0x697 JUMP JUMPDEST DUP3 PUSH1 0x1F LT PUSH2 0x669 JUMPI DUP1 MLOAD PUSH1 0xFF NOT AND DUP4 DUP1 ADD OR DUP6 SSTORE PUSH2 0x697 JUMP JUMPDEST DUP3 DUP1 ADD PUSH1 0x1 ADD DUP6 SSTORE DUP3 ISZERO PUSH2 0x697 JUMPI SWAP2 DUP3 ADD JUMPDEST DUP3 DUP2 GT ISZERO PUSH2 0x696 JUMPI DUP3 MLOAD DUP3 SSTORE SWAP2 PUSH1 0x20 ADD SWAP2 SWAP1 PUSH1 0x1 ADD SWAP1 PUSH2 0x67B JUMP JUMPDEST JUMPDEST POP SWAP1 POP PUSH2 0x6A4 SWAP2 SWAP1 PUSH2 0x6A8 JUMP JUMPDEST POP SWAP1 JUMP JUMPDEST JUMPDEST DUP1 DUP3 GT ISZERO PUSH2 0x6C1 JUMPI PUSH1 0x0 DUP2 PUSH1 0x0 SWAP1 SSTORE POP PUSH1 0x1 ADD PUSH2 0x6A9 JUMP JUMPDEST POP SWAP1 JUMP JUMPDEST PUSH1 0x0 DUP2 SWAP1 POP SWAP2 SWAP1 POP JUMP JUMPDEST PUSH2 0x6D8 DUP2 PUSH2 0x6C5 JUMP JUMPDEST DUP3 MSTORE POP POP JUMP JUMPDEST PUSH1 0x0 PUSH1 0x20 DUP3 ADD SWAP1 POP PUSH2 0x6F3 PUSH1 0x0 DUP4 ADD DUP5 PUSH2 0x6CF JUMP JUMPDEST SWAP3 SWAP2 POP POP JUMP JUMPDEST PUSH1 0x0 PUSH1 0x40 MLOAD SWAP1 POP SWAP1 JUMP JUMPDEST PUSH1 0x0 DUP1 REVERT JUMPDEST PUSH1 0x0 DUP1 REVERT JUMPDEST PUSH2 0x716 DUP2 PUSH2 0x6C5 JUMP JUMPDEST DUP2 EQ PUSH2 0x721 JUMPI PUSH1 0x0 DUP1 REVERT JUMPDEST POP JUMP JUMPDEST PUSH1 0x0 DUP2 CALLDATALOAD SWAP1 POP PUSH2 0x733 DUP2 PUSH2 0x70D JUMP JUMPDEST SWAP3 SWAP2 POP POP JUMP JUMPDEST PUSH1 0x0 PUSH1 0x20 DUP3 DUP5 SUB SLT ISZERO PUSH2 0x74F JUMPI PUSH2 0x74E PUSH2 0x703 JUMP JUMPDEST JUMPDEST PUSH1 0x0 PUSH2 0x75D DUP5 DUP3 DUP6 ADD PUSH2 0x724 JUMP JUMPDEST SWAP2 POP POP SWAP3 SWAP2 POP POP JUMP JUMPDEST PUSH1 0x0 DUP2 MLOAD SWAP1 POP SWAP2 SWAP1 POP JUMP JUMPDEST PUSH1 0x0 DUP3 DUP3 MSTORE PUSH1 0x20 DUP3 ADD SWAP1 POP SWAP3 SWAP2 POP POP JUMP JUMPDEST PUSH1 0x0 JUMPDEST DUP4 DUP2 LT ISZERO PUSH2 0x7A0 JUMPI DUP1 DUP3 ADD MLOAD DUP2 DUP5 ADD MSTORE PUSH1 0x20 DUP2 ADD SWAP1 POP PUSH2 0x785 JUMP JUMPDEST DUP4 DUP2 GT ISZERO PUSH2 0x7AF JUMPI PUSH1 0x0 DUP5 DUP5 ADD MSTORE JUMPDEST POP POP POP POP JUMP JUMPDEST PUSH1 0x0 PUSH1 0x1F NOT PUSH1 0x1F DUP4 ADD AND SWAP1 POP SWAP2 SWAP1 POP JUMP JUMPDEST PUSH1 0x0 PUSH2 0x7D1 DUP3 PUSH2 0x766 JUMP JUMPDEST PUSH2 0x7DB DUP2 DUP6 PUSH2 0x771 JUMP JUMPDEST SWAP4 POP PUSH2 0x7EB DUP2 DUP6 PUSH1 0x20 DUP7 ADD PUSH2 0x782 JUMP JUMPDEST PUSH2 0x7F4 DUP2 PUSH2 0x7B5 JUMP JUMPDEST DUP5 ADD SWAP2 POP POP SWAP3 SWAP2 POP POP JUMP JUMPDEST PUSH1 0x0 PUSH1 0x40 DUP3 ADD SWAP1 POP PUSH2 0x814 PUSH1 0x0 DUP4 ADD DUP6 PUSH2 0x6CF JUMP JUMPDEST DUP2 DUP2 SUB PUSH1 0x20 DUP4 ADD MSTORE PUSH2 0x826 DUP2 DUP5 PUSH2 0x7C6 JUMP JUMPDEST SWAP1 POP SWAP4 SWAP3 POP POP POP JUMP JUMPDEST PUSH1 0x0 DUP1 REVERT JUMPDEST PUSH1 0x0 DUP1 REVERT JUMPDEST PUSH32 0x4E487B7100000000000000000000000000000000000000000000000000000000 PUSH1 0x0 MSTORE PUSH1 0x41 PUSH1 0x4 MSTORE PUSH1 0x24 PUSH1 0x0 REVERT JUMPDEST PUSH2 0x871 DUP3 PUSH2 0x7B5 JUMP JUMPDEST DUP2 ADD DUP2 DUP2 LT PUSH8 0xFFFFFFFFFFFFFFFF DUP3 GT OR ISZERO PUSH2 0x890 JUMPI PUSH2 0x88F PUSH2 0x839 JUMP JUMPDEST JUMPDEST DUP1 PUSH1 0x40 MSTORE POP POP POP JUMP JUMPDEST PUSH1 0x0 PUSH2 0x8A3 PUSH2 0x6F9 JUMP JUMPDEST SWAP1 POP PUSH2 0x8AF DUP3 DUP3 PUSH2 0x868 JUMP JUMPDEST SWAP2 SWAP1 POP JUMP JUMPDEST PUSH1 0x0 PUSH8 0xFFFFFFFFFFFFFFFF DUP3 GT ISZERO PUSH2 0x8CF JUMPI PUSH2 0x8CE PUSH2 0x839 JUMP JUMPDEST JUMPDEST PUSH2 0x8D8 DUP3 PUSH2 0x7B5 JUMP JUMPDEST SWAP1 POP PUSH1 0x20 DUP2 ADD SWAP1 POP SWAP2 SWAP1 POP JUMP JUMPDEST DUP3 DUP2 DUP4 CALLDATACOPY PUSH1 0x0 DUP4 DUP4 ADD MSTORE POP POP POP JUMP JUMPDEST PUSH1 0x0 PUSH2 0x907 PUSH2 0x902 DUP5 PUSH2 0x8B4 JUMP JUMPDEST PUSH2 0x899 JUMP JUMPDEST SWAP1 POP DUP3 DUP2 MSTORE PUSH1 0x20 DUP2 ADD DUP5 DUP5 DUP5 ADD GT ISZERO PUSH2 0x923 JUMPI PUSH2 0x922 PUSH2 0x834 JUMP JUMPDEST JUMPDEST PUSH2 0x92E DUP5 DUP3 DUP6 PUSH2 0x8E5 JUMP JUMPDEST POP SWAP4 SWAP3 POP POP POP JUMP JUMPDEST PUSH1 0x0 DUP3 PUSH1 0x1F DUP4 ADD SLT PUSH2 0x94B JUMPI PUSH2 0x94A PUSH2 0x82F JUMP JUMPDEST JUMPDEST DUP2 CALLDATALOAD PUSH2 0x95B DUP5 DUP3 PUSH1 0x20 DUP7 ADD PUSH2 0x8F4 JUMP JUMPDEST SWAP2 POP POP SWAP3 SWAP2 POP POP JUMP JUMPDEST PUSH1 0x0 DUP1 PUSH1 0x40 DUP4 DUP6 SUB SLT ISZERO PUSH2 0x97B JUMPI PUSH2 0x97A PUSH2 0x703 JUMP JUMPDEST JUMPDEST PUSH1 0x0 DUP4 ADD CALLDATALOAD PUSH8 0xFFFFFFFFFFFFFFFF DUP2 GT ISZERO PUSH2 0x999 JUMPI PUSH2 0x998 PUSH2 0x708 JUMP JUMPDEST JUMPDEST PUSH2 0x9A5 DUP6 DUP3 DUP7 ADD PUSH2 0x936 JUMP JUMPDEST SWAP3 POP POP PUSH1 0x20 PUSH2 0x9B6 DUP6 DUP3 DUP7 ADD PUSH2 0x724 JUMP JUMPDEST SWAP2 POP POP SWAP3 POP SWAP3 SWAP1 POP JUMP JUMPDEST PUSH1 0x0 PUSH1 0x20 DUP3 DUP5 SUB SLT ISZERO PUSH2 0x9D6 JUMPI PUSH2 0x9D5 PUSH2 0x703 JUMP JUMPDEST JUMPDEST PUSH1 0x0 DUP3 ADD CALLDATALOAD PUSH8 0xFFFFFFFFFFFFFFFF DUP2 GT ISZERO PUSH2 0x9F4 JUMPI PUSH2 0x9F3 PUSH2 0x708 JUMP JUMPDEST JUMPDEST PUSH2 0xA00 DUP5 DUP3 DUP6 ADD PUSH2 0x936 JUMP JUMPDEST SWAP2 POP POP SWAP3 SWAP2 POP POP JUMP JUMPDEST PUSH1 0x0 PUSH1 0x20 DUP3 ADD SWAP1 POP DUP2 DUP2 SUB PUSH1 0x0 DUP4 ADD MSTORE PUSH2 0xA23 DUP2 DUP5 PUSH2 0x7C6 JUMP JUMPDEST SWAP1 POP SWAP3 SWAP2 POP POP JUMP JUMPDEST PUSH32 0x4E487B7100000000000000000000000000000000000000000000000000000000 PUSH1 0x0 MSTORE PUSH1 0x22 PUSH1 0x4 MSTORE PUSH1 0x24 PUSH1 0x0 REVERT JUMPDEST PUSH1 0x0 PUSH1 0x2 DUP3 DIV SWAP1 POP PUSH1 0x1 DUP3 AND DUP1 PUSH2 0xA72 JUMPI PUSH1 0x7F DUP3 AND SWAP2 POP JUMPDEST PUSH1 0x20 DUP3 LT DUP2 EQ ISZERO PUSH2 0xA86 JUMPI PUSH2 0xA85 PUSH2 0xA2B JUMP JUMPDEST JUMPDEST POP SWAP2 SWAP1 POP JUMP JUMPDEST PUSH1 0x0 DUP2 SWAP1 POP SWAP3 SWAP2 POP POP JUMP JUMPDEST PUSH1 0x0 PUSH2 0xAA2 DUP3 PUSH2 0x766 JUMP JUMPDEST PUSH2 0xAAC DUP2 DUP6 PUSH2 0xA8C JUMP JUMPDEST SWAP4 POP PUSH2 0xABC DUP2 DUP6 PUSH1 0x20 DUP7 ADD PUSH2 0x782 JUMP JUMPDEST DUP1 DUP5 ADD SWAP2 POP POP SWAP3 SWAP2 POP POP JUMP JUMPDEST PUSH1 0x0 PUSH2 0xAD4 DUP3 DUP5 PUSH2 0xA97 JUMP JUMPDEST SWAP2 POP DUP2 SWAP1 POP SWAP3 SWAP2 POP POP JUMP INVALID LOG2 PUSH5 0x6970667358 0x22 SLT KECCAK256 0xA8 0xDA CREATE2 PUSH18 0x7BE05DE47C91103212ACA8E8A6AB6196DA2F 0xBC SWAP11 0xEB 0xC SWAP16 SWAP14 0x4E 0x1E MULMOD 0xDE PUSH5 0x736F6C6343 STOP ADDMOD ADDMOD STOP CALLER "},"methodIdentifiers":{"addPerson(string,uint256)":"6f760f41","favoriteNumber()":"471f7cdf","favoriteNumberToName(uint256)":"fe379145","nameToFavoriteNumber(string)":"8bab8dd5","retrieve()":"2e64cec1","store(uint256)":"6057361d","val(uint256)":"399313bd"}}}}}