{
  "_format": "hh-sol-artifact-1",
  "contractName": "SimpleStorage",
  "sourceName": "contracts/SimpleStorage.sol",
  "abi": [
    {
      "inputs": [
        {
          "internalType": "string",
          "name": "_name",
          "type": "string"
        },
        {
          "internalType": "uint256",
          "name": "_favoriteNumber",
          "type": "uint256"
        }
      ],
      "name": "addPerson",
      "outputs": [],
      "stateMutability": "nonpayable",
      "type": "function"
    },
    {
      "inputs": [],
      "name": "favoriteNumber",
      "outputs": [
        {
          "internalType": "uint256",
          "name": "",
          "type": "uint256"
        }
      ],
      "stateMutability": "view",
      "type": "function"
    },
    {
      "inputs": [
        {
          "internalType": "uint256",
          "name": "",
          "type": "uint256"
        }
      ],
      "name": "favoriteNumberToName",
      "outputs": [
        {
          "internalType": "string",
          "name": "",
          "type": "string"
        }
      ],
      "stateMutability": "view",
      "type": "function"
    },
    {
      "inputs": [
        {
          "internalType": "string",
          "name": "",
          "type": "string"
        }
      ],
      "name": "nameToFavoriteNumber",
      "outputs": [
        {
          "internalType": "uint256",
          "name": "",
          "type": "uint256"
        }
      ],
      "stateMutability": "view",
      "type": "function"
    },
    {
      "inputs": [],
      "name": "retrieve",
      "outputs": [
        {
          "internalType": "uint256",
          "name": "",
          "type": "uint256"
        }
      ],
      "stateMutability": "view",
      "type": "function"
    },
    {
      "inputs": [
        {
          "internalType": "uint256",
          "name": "_favoriteNumber",
          "type": "uint256"
        }
      ],
      "name": "store",
      "outputs": [],
      "stateMutability": "nonpayable",
      "type": "function"
    },
    {
      "inputs": [
        {
          "internalType": "uint256",
          "name": "",
          "type": "uint256"
        }
      ],
      "name": "val",
      "outputs": [
        {
          "internalType": "uint256",
          "name": "favoriteNumber",
          "type": "uint256"
        },
        {
          "internalType": "string",
          "name": "name",
          "type": "string"
        }
      ],
      "stateMutability": "view",
      "type": "function"
    }
  ],
  "bytecode": "0x608060405234801561001057600080fd5b506108d5806100206000396000f3fe608060405234801561001057600080fd5b506004361061007d5760003560e01c80636057361d1161005b5780636057361d146100ef5780636f760f411461010b5780638bab8dd514610127578063fe379145146101575761007d565b80632e64cec114610082578063399313bd146100a0578063471f7cdf146100d1575b600080fd5b61008a610187565b604051610097919061049e565b60405180910390f35b6100ba60048036038101906100b591906104f9565b610190565b6040516100c89291906105bf565b60405180910390f35b6100d961024c565b6040516100e6919061049e565b60405180910390f35b610109600480360381019061010491906104f9565b610252565b005b61012560048036038101906101209190610724565b61025c565b005b610141600480360381019061013c9190610780565b610314565b60405161014e919061049e565b60405180910390f35b610171600480360381019061016c91906104f9565b610342565b60405161017e91906107c9565b60405180910390f35b60008054905090565b600381815481106101a057600080fd5b90600052602060002090600202016000915090508060000154908060010180546101c99061081a565b80601f01602080910402602001604051908101604052809291908181526020018280546101f59061081a565b80156102425780601f1061021757610100808354040283529160200191610242565b820191906000526020600020905b81548152906001019060200180831161022557829003601f168201915b5050505050905082565b60005481565b8060008190555050565b600360405180604001604052808381526020018481525090806001815401808255809150506001900390600052602060002090600202016000909190919091506000820151816000015560208201518160010190805190602001906102c29291906103e2565b505050806001836040516102d69190610888565b9081526020016040518091039020819055508160026000838152602001908152602001600020908051906020019061030f9291906103e2565b505050565b6001818051602081018201805184825260208301602085012081835280955050505050506000915090505481565b600260205280600052604060002060009150905080546103619061081a565b80601f016020809104026020016040519081016040528092919081815260200182805461038d9061081a565b80156103da5780601f106103af576101008083540402835291602001916103da565b820191906000526020600020905b8154815290600101906020018083116103bd57829003601f168201915b505050505081565b8280546103ee9061081a565b90600052602060002090601f0160209004810192826104105760008555610457565b82601f1061042957805160ff1916838001178555610457565b82800160010185558215610457579182015b8281111561045657825182559160200191906001019061043b565b5b5090506104649190610468565b5090565b5b80821115610481576000816000905550600101610469565b5090565b6000819050919050565b61049881610485565b82525050565b60006020820190506104b3600083018461048f565b92915050565b6000604051905090565b600080fd5b600080fd5b6104d681610485565b81146104e157600080fd5b50565b6000813590506104f3816104cd565b92915050565b60006020828403121561050f5761050e6104c3565b5b600061051d848285016104e4565b91505092915050565b600081519050919050565b600082825260208201905092915050565b60005b83811015610560578082015181840152602081019050610545565b8381111561056f576000848401525b50505050565b6000601f19601f8301169050919050565b600061059182610526565b61059b8185610531565b93506105ab818560208601610542565b6105b481610575565b840191505092915050565b60006040820190506105d4600083018561048f565b81810360208301526105e68184610586565b90509392505050565b600080fd5b600080fd5b7f4e487b7100000000000000000000000000000000000000000000000000000000600052604160045260246000fd5b61063182610575565b810181811067ffffffffffffffff821117156106505761064f6105f9565b5b80604052505050565b60006106636104b9565b905061066f8282610628565b919050565b600067ffffffffffffffff82111561068f5761068e6105f9565b5b61069882610575565b9050602081019050919050565b82818337600083830152505050565b60006106c76106c284610674565b610659565b9050828152602081018484840111156106e3576106e26105f4565b5b6106ee8482856106a5565b509392505050565b600082601f83011261070b5761070a6105ef565b5b813561071b8482602086016106b4565b91505092915050565b6000806040838503121561073b5761073a6104c3565b5b600083013567ffffffffffffffff811115610759576107586104c8565b5b610765858286016106f6565b9250506020610776858286016104e4565b9150509250929050565b600060208284031215610796576107956104c3565b5b600082013567ffffffffffffffff8111156107b4576107b36104c8565b5b6107c0848285016106f6565b91505092915050565b600060208201905081810360008301526107e38184610586565b905092915050565b7f4e487b7100000000000000000000000000000000000000000000000000000000600052602260045260246000fd5b6000600282049050600182168061083257607f821691505b60208210811415610846576108456107eb565b5b50919050565b600081905092915050565b600061086282610526565b61086c818561084c565b935061087c818560208601610542565b80840191505092915050565b60006108948284610857565b91508190509291505056fea26469706673582212205c09ab0c805f062512f96c2bec30efa2b7481017c219e63f0bfd8d031dc8c4bf64736f6c63430008080033",
  "linkReferences": {},
  "deployedLinkReferences": {}
}