{
  "_format": "hh-sol-artifact-1",
  "contractName": "SimpleStorage",
  "sourceName": "contracts/SimpleStorage.sol",
  "abi": [
    {
      "inputs": [
        {
          "internalType": "string",
          "name": "_name",
          "type": "string"
        },
        {
          "internalType": "uint256",
          "name": "_favoriteNumber",
          "type": "uint256"
        }
      ],
      "name": "addPerson",
      "outputs": [],
      "stateMutability": "nonpayable",
      "type": "function"
    },
    {
      "inputs": [],
      "name": "favoriteNumber",
      "outputs": [
        {
          "internalType": "uint256",
          "name": "",
          "type": "uint256"
        }
      ],
      "stateMutability": "view",
      "type": "function"
    },
    {
      "inputs": [
        {
          "internalType": "uint256",
          "name": "",
          "type": "uint256"
        }
      ],
      "name": "favoriteNumberToName",
      "outputs": [
        {
          "internalType": "string",
          "name": "",
          "type": "string"
        }
      ],
      "stateMutability": "view",
      "type": "function"
    },
    {
      "inputs": [
        {
          "internalType": "string",
          "name": "",
          "type": "string"
        }
      ],
      "name": "nameToFavoriteNumber",
      "outputs": [
        {
          "internalType": "uint256",
          "name": "",
          "type": "uint256"
        }
      ],
      "stateMutability": "view",
      "type": "function"
    },
    {
      "inputs": [],
      "name": "retrieve",
      "outputs": [
        {
          "internalType": "uint256",
          "name": "",
          "type": "uint256"
        }
      ],
      "stateMutability": "view",
      "type": "function"
    },
    {
      "inputs": [
        {
          "internalType": "uint256",
          "name": "_favoriteNumber",
          "type": "uint256"
        }
      ],
      "name": "store",
      "outputs": [],
      "stateMutability": "nonpayable",
      "type": "function"
    },
    {
      "inputs": [
        {
          "internalType": "uint256",
          "name": "",
          "type": "uint256"
        }
      ],
      "name": "val",
      "outputs": [
        {
          "internalType": "uint256",
          "name": "favoriteNumber",
          "type": "uint256"
        },
        {
          "internalType": "string",
          "name": "name",
          "type": "string"
        }
      ],
      "stateMutability": "view",
      "type": "function"
    }
  ],
  "bytecode": "0x608060405234801561001057600080fd5b50610b15806100206000396000f3fe608060405234801561001057600080fd5b506004361061007d5760003560e01c80636057361d1161005b5780636057361d146100ef5780636f760f411461010b5780638bab8dd514610127578063fe379145146101575761007d565b80632e64cec114610082578063399313bd146100a0578063471f7cdf146100d1575b600080fd5b61008a610187565b60405161009791906106de565b60405180910390f35b6100ba60048036038101906100b59190610739565b610215565b6040516100c89291906107ff565b60405180910390f35b6100d96102d1565b6040516100e691906106de565b60405180910390f35b61010960048036038101906101049190610739565b6102d7565b005b61012560048036038101906101209190610964565b610365565b005b610141600480360381019061013c91906109c0565b610551565b60405161014e91906106de565b60405180910390f35b610171600480360381019061016c9190610739565b61057f565b60405161017e9190610a09565b60405180910390f35b60006101b57f6517c0da0de8e6bdfecf16d1112785c25bfb0651aae4c92cfc5774b57ee55c2d60001b61061f565b6101e17f0f494696f0c6b0cd7f0a26b701bbc60d2e75e4a153a9cd00c423ec7227d86cdf60001b61061f565b61020d7f823647a2904fcb7e38e99e4c806bc974270c0e2fb1ad5ef6ae78aff0489cf0c160001b61061f565b600054905090565b6003818154811061022557600080fd5b906000526020600020906002020160009150905080600001549080600101805461024e90610a5a565b80601f016020809104026020016040519081016040528092919081815260200182805461027a90610a5a565b80156102c75780601f1061029c576101008083540402835291602001916102c7565b820191906000526020600020905b8154815290600101906020018083116102aa57829003601f168201915b5050505050905082565b60005481565b6103037f88c2a3172ac446d7d1e148d2716078849220252217188e7543ff4e4f46932b0e60001b61061f565b61032f7fccfb9c18dc68fb1989a23b1e3acb214e92d470a1be7e82e6467b5bd130d8c7d760001b61061f565b61035b7f03874dc407568fc4551d41c0c15e182b5e4ea735f3af114acd59b24785851d2160001b61061f565b8060008190555050565b6103917f4c9ce405b581f21caf86a43fb66dd9b6692e258048010f2737cc905ce9e1977360001b61061f565b6103bd7fab480e850518a0ec832a4d1fcebdbfdd15d9429f23fa48e973b280ea050923df60001b61061f565b6103e97f2c932770f9e1d53b444ce28d306988cfed03a2ba9a4ce3dd6515156e9552e98460001b61061f565b6003604051806040016040528083815260200184815250908060018154018082558091505060019003906000526020600020906002020160009091909190915060008201518160000155602082015181600101908051906020019061044f929190610622565b50505061047e7fcab00b3dc99730c332709a69c4097370d2c3d38a422a37fc3ec97e90039a911f60001b61061f565b6104aa7fcb344fed26f3b4ebeaf09b7b59a74a47fe5f9e3c14f8878101abe744263328b160001b61061f565b806001836040516104bb9190610ac8565b9081526020016040518091039020819055506104f97fa049b0e855f8e67b43d279082fb82b5ddb6e2aff71376f8f58853627f452f75160001b61061f565b6105257f9ee4d458fab23398c019c9383c1a211787616814dd2fdc81af7659a5199e2ab160001b61061f565b8160026000838152602001908152602001600020908051906020019061054c929190610622565b505050565b6001818051602081018201805184825260208301602085012081835280955050505050506000915090505481565b6002602052806000526040600020600091509050805461059e90610a5a565b80601f01602080910402602001604051908101604052809291908181526020018280546105ca90610a5a565b80156106175780601f106105ec57610100808354040283529160200191610617565b820191906000526020600020905b8154815290600101906020018083116105fa57829003601f168201915b505050505081565b50565b82805461062e90610a5a565b90600052602060002090601f0160209004810192826106505760008555610697565b82601f1061066957805160ff1916838001178555610697565b82800160010185558215610697579182015b8281111561069657825182559160200191906001019061067b565b5b5090506106a491906106a8565b5090565b5b808211156106c15760008160009055506001016106a9565b5090565b6000819050919050565b6106d8816106c5565b82525050565b60006020820190506106f360008301846106cf565b92915050565b6000604051905090565b600080fd5b600080fd5b610716816106c5565b811461072157600080fd5b50565b6000813590506107338161070d565b92915050565b60006020828403121561074f5761074e610703565b5b600061075d84828501610724565b91505092915050565b600081519050919050565b600082825260208201905092915050565b60005b838110156107a0578082015181840152602081019050610785565b838111156107af576000848401525b50505050565b6000601f19601f8301169050919050565b60006107d182610766565b6107db8185610771565b93506107eb818560208601610782565b6107f4816107b5565b840191505092915050565b600060408201905061081460008301856106cf565b818103602083015261082681846107c6565b90509392505050565b600080fd5b600080fd5b7f4e487b7100000000000000000000000000000000000000000000000000000000600052604160045260246000fd5b610871826107b5565b810181811067ffffffffffffffff821117156108905761088f610839565b5b80604052505050565b60006108a36106f9565b90506108af8282610868565b919050565b600067ffffffffffffffff8211156108cf576108ce610839565b5b6108d8826107b5565b9050602081019050919050565b82818337600083830152505050565b6000610907610902846108b4565b610899565b90508281526020810184848401111561092357610922610834565b5b61092e8482856108e5565b509392505050565b600082601f83011261094b5761094a61082f565b5b813561095b8482602086016108f4565b91505092915050565b6000806040838503121561097b5761097a610703565b5b600083013567ffffffffffffffff81111561099957610998610708565b5b6109a585828601610936565b92505060206109b685828601610724565b9150509250929050565b6000602082840312156109d6576109d5610703565b5b600082013567ffffffffffffffff8111156109f4576109f3610708565b5b610a0084828501610936565b91505092915050565b60006020820190508181036000830152610a2381846107c6565b905092915050565b7f4e487b7100000000000000000000000000000000000000000000000000000000600052602260045260246000fd5b60006002820490506001821680610a7257607f821691505b60208210811415610a8657610a85610a2b565b5b50919050565b600081905092915050565b6000610aa282610766565b610aac8185610a8c565b9350610abc818560208601610782565b80840191505092915050565b6000610ad48284610a97565b91508190509291505056fea2646970667358221220a8daf5717be05de47c91103212aca8e8a6ab6196da2fbc9aeb0c9f9d4e1e09de64736f6c63430008080033",
  "linkReferences": {},
  "deployedLinkReferences": {}
}